{
  "_format": "hh-sol-artifact-1",
  "contractName": "Web3Mint",
  "sourceName": "contracts/Web3Mint.sol",
  "abi": [
    {
      "inputs": [],
      "stateMutability": "nonpayable",
      "type": "constructor"
    },
    {
      "anonymous": false,
      "inputs": [
        {
          "indexed": true,
          "internalType": "address",
          "name": "owner",
          "type": "address"
        },
        {
          "indexed": true,
          "internalType": "address",
          "name": "approved",
          "type": "address"
        },
        {
          "indexed": true,
          "internalType": "uint256",
          "name": "tokenId",
          "type": "uint256"
        }
      ],
      "name": "Approval",
      "type": "event"
    },
    {
      "anonymous": false,
      "inputs": [
        {
          "indexed": true,
          "internalType": "address",
          "name": "owner",
          "type": "address"
        },
        {
          "indexed": true,
          "internalType": "address",
          "name": "operator",
          "type": "address"
        },
        {
          "indexed": false,
          "internalType": "bool",
          "name": "approved",
          "type": "bool"
        }
      ],
      "name": "ApprovalForAll",
      "type": "event"
    },
    {
      "anonymous": false,
      "inputs": [
        {
          "indexed": true,
          "internalType": "address",
          "name": "from",
          "type": "address"
        },
        {
          "indexed": true,
          "internalType": "address",
          "name": "to",
          "type": "address"
        },
        {
          "indexed": true,
          "internalType": "uint256",
          "name": "tokenId",
          "type": "uint256"
        }
      ],
      "name": "Transfer",
      "type": "event"
    },
    {
      "inputs": [
        {
          "internalType": "address",
          "name": "to",
          "type": "address"
        },
        {
          "internalType": "uint256",
          "name": "tokenId",
          "type": "uint256"
        }
      ],
      "name": "approve",
      "outputs": [],
      "stateMutability": "nonpayable",
      "type": "function"
    },
    {
      "inputs": [
        {
          "internalType": "address",
          "name": "owner",
          "type": "address"
        }
      ],
      "name": "balanceOf",
      "outputs": [
        {
          "internalType": "uint256",
          "name": "",
          "type": "uint256"
        }
      ],
      "stateMutability": "view",
      "type": "function"
    },
    {
      "inputs": [
        {
          "internalType": "uint256",
          "name": "tokenId",
          "type": "uint256"
        }
      ],
      "name": "getApproved",
      "outputs": [
        {
          "internalType": "address",
          "name": "",
          "type": "address"
        }
      ],
      "stateMutability": "view",
      "type": "function"
    },
    {
      "inputs": [],
      "name": "getLatestId",
      "outputs": [
        {
          "internalType": "uint256",
          "name": "",
          "type": "uint256"
        }
      ],
      "stateMutability": "view",
      "type": "function"
    },
    {
      "inputs": [
        {
          "internalType": "address",
          "name": "owner",
          "type": "address"
        },
        {
          "internalType": "address",
          "name": "operator",
          "type": "address"
        }
      ],
      "name": "isApprovedForAll",
      "outputs": [
        {
          "internalType": "bool",
          "name": "",
          "type": "bool"
        }
      ],
      "stateMutability": "view",
      "type": "function"
    },
    {
      "inputs": [
        {
          "internalType": "string",
          "name": "metadataURI",
          "type": "string"
        }
      ],
      "name": "mintIpfsNFT",
      "outputs": [],
      "stateMutability": "nonpayable",
      "type": "function"
    },
    {
      "inputs": [],
      "name": "name",
      "outputs": [
        {
          "internalType": "string",
          "name": "",
          "type": "string"
        }
      ],
      "stateMutability": "view",
      "type": "function"
    },
    {
      "inputs": [
        {
          "internalType": "uint256",
          "name": "tokenId",
          "type": "uint256"
        }
      ],
      "name": "ownerOf",
      "outputs": [
        {
          "internalType": "address",
          "name": "",
          "type": "address"
        }
      ],
      "stateMutability": "view",
      "type": "function"
    },
    {
      "inputs": [
        {
          "internalType": "address",
          "name": "from",
          "type": "address"
        },
        {
          "internalType": "address",
          "name": "to",
          "type": "address"
        },
        {
          "internalType": "uint256",
          "name": "tokenId",
          "type": "uint256"
        }
      ],
      "name": "safeTransferFrom",
      "outputs": [],
      "stateMutability": "nonpayable",
      "type": "function"
    },
    {
      "inputs": [
        {
          "internalType": "address",
          "name": "from",
          "type": "address"
        },
        {
          "internalType": "address",
          "name": "to",
          "type": "address"
        },
        {
          "internalType": "uint256",
          "name": "tokenId",
          "type": "uint256"
        },
        {
          "internalType": "bytes",
          "name": "data",
          "type": "bytes"
        }
      ],
      "name": "safeTransferFrom",
      "outputs": [],
      "stateMutability": "nonpayable",
      "type": "function"
    },
    {
      "inputs": [
        {
          "internalType": "address",
          "name": "operator",
          "type": "address"
        },
        {
          "internalType": "bool",
          "name": "approved",
          "type": "bool"
        }
      ],
      "name": "setApprovalForAll",
      "outputs": [],
      "stateMutability": "nonpayable",
      "type": "function"
    },
    {
      "inputs": [
        {
          "internalType": "bytes4",
          "name": "interfaceId",
          "type": "bytes4"
        }
      ],
      "name": "supportsInterface",
      "outputs": [
        {
          "internalType": "bool",
          "name": "",
          "type": "bool"
        }
      ],
      "stateMutability": "view",
      "type": "function"
    },
    {
      "inputs": [],
      "name": "symbol",
      "outputs": [
        {
          "internalType": "string",
          "name": "",
          "type": "string"
        }
      ],
      "stateMutability": "view",
      "type": "function"
    },
    {
      "inputs": [
        {
          "internalType": "uint256",
          "name": "_tokenId",
          "type": "uint256"
        }
      ],
      "name": "tokenURI",
      "outputs": [
        {
          "internalType": "string",
          "name": "",
          "type": "string"
        }
      ],
      "stateMutability": "view",
      "type": "function"
    },
    {
      "inputs": [
        {
          "internalType": "address",
          "name": "from",
          "type": "address"
        },
        {
          "internalType": "address",
          "name": "to",
          "type": "address"
        },
        {
          "internalType": "uint256",
          "name": "tokenId",
          "type": "uint256"
        }
      ],
      "name": "transferFrom",
      "outputs": [],
      "stateMutability": "nonpayable",
      "type": "function"
    }
  ],
  "bytecode": "0x60806040523480156200001157600080fd5b506040518060400160405280600a81526020017f48616b616e61694e4654000000000000000000000000000000000000000000008152506040518060400160405280600481526020017f484b4e4900000000000000000000000000000000000000000000000000000000815250816000908051906020019062000096929190620001cf565b508060019080519060200190620000af929190620001cf565b505050620000fd6040518060400160405280601881526020017f54686973206973206d79204e465420636f6e74726163742e00000000000000008152506200010360201b62000aea1760201c565b620003ac565b620001a3816040516024016200011a919062000323565b6040516020818303038152906040527f41304fac000000000000000000000000000000000000000000000000000000007bffffffffffffffffffffffffffffffffffffffffffffffffffffffff19166020820180517bffffffffffffffffffffffffffffffffffffffffffffffffffffffff8381831617835250505050620001a660201b60201c565b50565b60008151905060006a636f6e736f6c652e6c6f679050602083016000808483855afa5050505050565b828054620001dd9062000376565b90600052602060002090601f0160209004810192826200020157600085556200024d565b82601f106200021c57805160ff19168380011785556200024d565b828001600101855582156200024d579182015b828111156200024c5782518255916020019190600101906200022f565b5b5090506200025c919062000260565b5090565b5b808211156200027b57600081600090555060010162000261565b5090565b600081519050919050565b600082825260208201905092915050565b60005b83811015620002bb5780820151818401526020810190506200029e565b83811115620002cb576000848401525b50505050565b6000601f19601f8301169050919050565b6000620002ef826200027f565b620002fb81856200028a565b93506200030d8185602086016200029b565b6200031881620002d1565b840191505092915050565b600060208201905081810360008301526200033f8184620002e2565b905092915050565b7f4e487b7100000000000000000000000000000000000000000000000000000000600052602260045260246000fd5b600060028204905060018216806200038f57607f821691505b60208210811415620003a657620003a562000347565b5b50919050565b6126f080620003bc6000396000f3fe608060405234801561001057600080fd5b50600436106100f55760003560e01c806370a0823111610097578063c87b56dd11610066578063c87b56dd14610282578063e15a70d5146102b2578063e985e9c5146102ce578063eff91c7e146102fe576100f5565b806370a08231146101fc57806395d89b411461022c578063a22cb4651461024a578063b88d4fde14610266576100f5565b8063095ea7b3116100d3578063095ea7b31461017857806323b872dd1461019457806342842e0e146101b05780636352211e146101cc576100f5565b806301ffc9a7146100fa57806306fdde031461012a578063081812fc14610148575b600080fd5b610114600480360381019061010f919061183c565b61031c565b6040516101219190611884565b60405180910390f35b6101326103fe565b60405161013f9190611938565b60405180910390f35b610162600480360381019061015d9190611990565b610490565b60405161016f91906119fe565b60405180910390f35b610192600480360381019061018d9190611a45565b6104d6565b005b6101ae60048036038101906101a99190611a85565b6105ee565b005b6101ca60048036038101906101c59190611a85565b61064e565b005b6101e660048036038101906101e19190611990565b61066e565b6040516101f391906119fe565b60405180910390f35b61021660048036038101906102119190611ad8565b610720565b6040516102239190611b14565b60405180910390f35b6102346107d8565b6040516102419190611938565b60405180910390f35b610264600480360381019061025f9190611b5b565b61086a565b005b610280600480360381019061027b9190611cd0565b610880565b005b61029c60048036038101906102979190611990565b6108e2565b6040516102a99190611938565b60405180910390f35b6102cc60048036038101906102c79190611df4565b61099b565b005b6102e860048036038101906102e39190611e3d565b610a39565b6040516102f59190611884565b60405180910390f35b610306610acd565b6040516103139190611b14565b60405180910390f35b60007f80ac58cd000000000000000000000000000000000000000000000000000000007bffffffffffffffffffffffffffffffffffffffffffffffffffffffff1916827bffffffffffffffffffffffffffffffffffffffffffffffffffffffff191614806103e757507f5b5e139f000000000000000000000000000000000000000000000000000000007bffffffffffffffffffffffffffffffffffffffffffffffffffffffff1916827bffffffffffffffffffffffffffffffffffffffffffffffffffffffff1916145b806103f757506103f682610b83565b5b9050919050565b60606000805461040d90611eac565b80601f016020809104026020016040519081016040528092919081815260200182805461043990611eac565b80156104865780601f1061045b57610100808354040283529160200191610486565b820191906000526020600020905b81548152906001019060200180831161046957829003601f168201915b5050505050905090565b600061049b82610bed565b6004600083815260200190815260200160002060009054906101000a900473ffffffffffffffffffffffffffffffffffffffff169050919050565b60006104e18261066e565b90508073ffffffffffffffffffffffffffffffffffffffff168373ffffffffffffffffffffffffffffffffffffffff161415610552576040517f08c379a000000000000000000000000000000000000000000000000000000000815260040161054990611f50565b60405180910390fd5b8073ffffffffffffffffffffffffffffffffffffffff16610571610c38565b73ffffffffffffffffffffffffffffffffffffffff1614806105a0575061059f8161059a610c38565b610a39565b5b6105df576040517f08c379a00000000000000000000000000000000000000000000000000000000081526004016105d690611fe2565b60405180910390fd5b6105e98383610c40565b505050565b6105ff6105f9610c38565b82610cf9565b61063e576040517f08c379a000000000000000000000000000000000000000000000000000000000815260040161063590612074565b60405180910390fd5b610649838383610d8e565b505050565b61066983838360405180602001604052806000815250610880565b505050565b6000806002600084815260200190815260200160002060009054906101000a900473ffffffffffffffffffffffffffffffffffffffff169050600073ffffffffffffffffffffffffffffffffffffffff168173ffffffffffffffffffffffffffffffffffffffff161415610717576040517f08c379a000000000000000000000000000000000000000000000000000000000815260040161070e906120e0565b60405180910390fd5b80915050919050565b60008073ffffffffffffffffffffffffffffffffffffffff168273ffffffffffffffffffffffffffffffffffffffff161415610791576040517f08c379a000000000000000000000000000000000000000000000000000000000815260040161078890612172565b60405180910390fd5b600360008373ffffffffffffffffffffffffffffffffffffffff1673ffffffffffffffffffffffffffffffffffffffff168152602001908152602001600020549050919050565b6060600180546107e790611eac565b80601f016020809104026020016040519081016040528092919081815260200182805461081390611eac565b80156108605780601f1061083557610100808354040283529160200191610860565b820191906000526020600020905b81548152906001019060200180831161084357829003601f168201915b5050505050905090565b61087c610875610c38565b8383610ff5565b5050565b61089161088b610c38565b83610cf9565b6108d0576040517f08c379a00000000000000000000000000000000000000000000000000000000081526004016108c790612074565b60405180910390fd5b6108dc84848484611162565b50505050565b60606000600683815481106108fa576108f9612192565b5b90600052602060002001600001805461091290611eac565b80601f016020809104026020016040519081016040528092919081815260200182805461093e90611eac565b801561098b5780601f106109605761010080835404028352916020019161098b565b820191906000526020600020905b81548152906001019060200180831161096e57829003601f168201915b5050505050905080915050919050565b60006109a760076111be565b90506109b333826111cc565b6006604051806020016040528084815250908060018154018082558091505060019003906000526020600020016000909190919091506000820151816000019080519060200190610a0592919061172d565b505050610a2b6040518060600160405280602581526020016126966025913982336111ea565b610a356007611289565b5050565b6000600560008473ffffffffffffffffffffffffffffffffffffffff1673ffffffffffffffffffffffffffffffffffffffff16815260200190815260200160002060008373ffffffffffffffffffffffffffffffffffffffff1673ffffffffffffffffffffffffffffffffffffffff16815260200190815260200160002060009054906101000a900460ff16905092915050565b60006001610adb60076111be565b610ae591906121f0565b905090565b610b8081604051602401610afe9190611938565b6040516020818303038152906040527f41304fac000000000000000000000000000000000000000000000000000000007bffffffffffffffffffffffffffffffffffffffffffffffffffffffff19166020820180517bffffffffffffffffffffffffffffffffffffffffffffffffffffffff838183161783525050505061129f565b50565b60007f01ffc9a7000000000000000000000000000000000000000000000000000000007bffffffffffffffffffffffffffffffffffffffffffffffffffffffff1916827bffffffffffffffffffffffffffffffffffffffffffffffffffffffff1916149050919050565b610bf6816112c8565b610c35576040517f08c379a0000000000000000000000000000000000000000000000000000000008152600401610c2c906120e0565b60405180910390fd5b50565b600033905090565b816004600083815260200190815260200160002060006101000a81548173ffffffffffffffffffffffffffffffffffffffff021916908373ffffffffffffffffffffffffffffffffffffffff160217905550808273ffffffffffffffffffffffffffffffffffffffff16610cb38361066e565b73ffffffffffffffffffffffffffffffffffffffff167f8c5be1e5ebec7d5bd14f71427d1e84f3dd0314c0f7b2291e5b200ac8c7c3b92560405160405180910390a45050565b600080610d058361066e565b90508073ffffffffffffffffffffffffffffffffffffffff168473ffffffffffffffffffffffffffffffffffffffff161480610d475750610d468185610a39565b5b80610d8557508373ffffffffffffffffffffffffffffffffffffffff16610d6d84610490565b73ffffffffffffffffffffffffffffffffffffffff16145b91505092915050565b8273ffffffffffffffffffffffffffffffffffffffff16610dae8261066e565b73ffffffffffffffffffffffffffffffffffffffff1614610e04576040517f08c379a0000000000000000000000000000000000000000000000000000000008152600401610dfb90612296565b60405180910390fd5b600073ffffffffffffffffffffffffffffffffffffffff168273ffffffffffffffffffffffffffffffffffffffff161415610e74576040517f08c379a0000000000000000000000000000000000000000000000000000000008152600401610e6b90612328565b60405180910390fd5b610e7f838383611334565b610e8a600082610c40565b6001600360008573ffffffffffffffffffffffffffffffffffffffff1673ffffffffffffffffffffffffffffffffffffffff1681526020019081526020016000206000828254610eda91906121f0565b925050819055506001600360008473ffffffffffffffffffffffffffffffffffffffff1673ffffffffffffffffffffffffffffffffffffffff1681526020019081526020016000206000828254610f319190612348565b92505081905550816002600083815260200190815260200160002060006101000a81548173ffffffffffffffffffffffffffffffffffffffff021916908373ffffffffffffffffffffffffffffffffffffffff160217905550808273ffffffffffffffffffffffffffffffffffffffff168473ffffffffffffffffffffffffffffffffffffffff167fddf252ad1be2c89b69c2b068fc378daa952ba7f163c4a11628f55a4df523b3ef60405160405180910390a4610ff0838383611339565b505050565b8173ffffffffffffffffffffffffffffffffffffffff168373ffffffffffffffffffffffffffffffffffffffff161415611064576040517f08c379a000000000000000000000000000000000000000000000000000000000815260040161105b906123ea565b60405180910390fd5b80600560008573ffffffffffffffffffffffffffffffffffffffff1673ffffffffffffffffffffffffffffffffffffffff16815260200190815260200160002060008473ffffffffffffffffffffffffffffffffffffffff1673ffffffffffffffffffffffffffffffffffffffff16815260200190815260200160002060006101000a81548160ff0219169083151502179055508173ffffffffffffffffffffffffffffffffffffffff168373ffffffffffffffffffffffffffffffffffffffff167f17307eab39ab6107e8899845ad3d59bd9653f200f220920489ca2b5937696c31836040516111559190611884565b60405180910390a3505050565b61116d848484610d8e565b6111798484848461133e565b6111b8576040517f08c379a00000000000000000000000000000000000000000000000000000000081526004016111af9061247c565b60405180910390fd5b50505050565b600081600001549050919050565b6111e68282604051806020016040528060008152506114d5565b5050565b6112848383836040516024016112029392919061249c565b6040516020818303038152906040527f1c7ec448000000000000000000000000000000000000000000000000000000007bffffffffffffffffffffffffffffffffffffffffffffffffffffffff19166020820180517bffffffffffffffffffffffffffffffffffffffffffffffffffffffff838183161783525050505061129f565b505050565b6001816000016000828254019250508190555050565b60008151905060006a636f6e736f6c652e6c6f679050602083016000808483855afa5050505050565b60008073ffffffffffffffffffffffffffffffffffffffff166002600084815260200190815260200160002060009054906101000a900473ffffffffffffffffffffffffffffffffffffffff1673ffffffffffffffffffffffffffffffffffffffff1614159050919050565b505050565b505050565b600061135f8473ffffffffffffffffffffffffffffffffffffffff16611530565b156114c8578373ffffffffffffffffffffffffffffffffffffffff1663150b7a02611388610c38565b8786866040518563ffffffff1660e01b81526004016113aa949392919061252f565b602060405180830381600087803b1580156113c457600080fd5b505af19250505080156113f557506040513d601f19601f820116820180604052508101906113f29190612590565b60015b611478573d8060008114611425576040519150601f19603f3d011682016040523d82523d6000602084013e61142a565b606091505b50600081511415611470576040517f08c379a00000000000000000000000000000000000000000000000000000000081526004016114679061247c565b60405180910390fd5b805181602001fd5b63150b7a0260e01b7bffffffffffffffffffffffffffffffffffffffffffffffffffffffff1916817bffffffffffffffffffffffffffffffffffffffffffffffffffffffff1916149150506114cd565b600190505b949350505050565b6114df8383611553565b6114ec600084848461133e565b61152b576040517f08c379a00000000000000000000000000000000000000000000000000000000081526004016115229061247c565b60405180910390fd5b505050565b6000808273ffffffffffffffffffffffffffffffffffffffff163b119050919050565b600073ffffffffffffffffffffffffffffffffffffffff168273ffffffffffffffffffffffffffffffffffffffff1614156115c3576040517f08c379a00000000000000000000000000000000000000000000000000000000081526004016115ba90612609565b60405180910390fd5b6115cc816112c8565b1561160c576040517f08c379a000000000000000000000000000000000000000000000000000000000815260040161160390612675565b60405180910390fd5b61161860008383611334565b6001600360008473ffffffffffffffffffffffffffffffffffffffff1673ffffffffffffffffffffffffffffffffffffffff16815260200190815260200160002060008282546116689190612348565b92505081905550816002600083815260200190815260200160002060006101000a81548173ffffffffffffffffffffffffffffffffffffffff021916908373ffffffffffffffffffffffffffffffffffffffff160217905550808273ffffffffffffffffffffffffffffffffffffffff16600073ffffffffffffffffffffffffffffffffffffffff167fddf252ad1be2c89b69c2b068fc378daa952ba7f163c4a11628f55a4df523b3ef60405160405180910390a461172960008383611339565b5050565b82805461173990611eac565b90600052602060002090601f01602090048101928261175b57600085556117a2565b82601f1061177457805160ff19168380011785556117a2565b828001600101855582156117a2579182015b828111156117a1578251825591602001919060010190611786565b5b5090506117af91906117b3565b5090565b5b808211156117cc5760008160009055506001016117b4565b5090565b6000604051905090565b600080fd5b600080fd5b60007fffffffff0000000000000000000000000000000000000000000000000000000082169050919050565b611819816117e4565b811461182457600080fd5b50565b60008135905061183681611810565b92915050565b600060208284031215611852576118516117da565b5b600061186084828501611827565b91505092915050565b60008115159050919050565b61187e81611869565b82525050565b60006020820190506118996000830184611875565b92915050565b600081519050919050565b600082825260208201905092915050565b60005b838110156118d95780820151818401526020810190506118be565b838111156118e8576000848401525b50505050565b6000601f19601f8301169050919050565b600061190a8261189f565b61191481856118aa565b93506119248185602086016118bb565b61192d816118ee565b840191505092915050565b6000602082019050818103600083015261195281846118ff565b905092915050565b6000819050919050565b61196d8161195a565b811461197857600080fd5b50565b60008135905061198a81611964565b92915050565b6000602082840312156119a6576119a56117da565b5b60006119b48482850161197b565b91505092915050565b600073ffffffffffffffffffffffffffffffffffffffff82169050919050565b60006119e8826119bd565b9050919050565b6119f8816119dd565b82525050565b6000602082019050611a1360008301846119ef565b92915050565b611a22816119dd565b8114611a2d57600080fd5b50565b600081359050611a3f81611a19565b92915050565b60008060408385031215611a5c57611a5b6117da565b5b6000611a6a85828601611a30565b9250506020611a7b8582860161197b565b9150509250929050565b600080600060608486031215611a9e57611a9d6117da565b5b6000611aac86828701611a30565b9350506020611abd86828701611a30565b9250506040611ace8682870161197b565b9150509250925092565b600060208284031215611aee57611aed6117da565b5b6000611afc84828501611a30565b91505092915050565b611b0e8161195a565b82525050565b6000602082019050611b296000830184611b05565b92915050565b611b3881611869565b8114611b4357600080fd5b50565b600081359050611b5581611b2f565b92915050565b60008060408385031215611b7257611b716117da565b5b6000611b8085828601611a30565b9250506020611b9185828601611b46565b9150509250929050565b600080fd5b600080fd5b7f4e487b7100000000000000000000000000000000000000000000000000000000600052604160045260246000fd5b611bdd826118ee565b810181811067ffffffffffffffff82111715611bfc57611bfb611ba5565b5b80604052505050565b6000611c0f6117d0565b9050611c1b8282611bd4565b919050565b600067ffffffffffffffff821115611c3b57611c3a611ba5565b5b611c44826118ee565b9050602081019050919050565b82818337600083830152505050565b6000611c73611c6e84611c20565b611c05565b905082815260208101848484011115611c8f57611c8e611ba0565b5b611c9a848285611c51565b509392505050565b600082601f830112611cb757611cb6611b9b565b5b8135611cc7848260208601611c60565b91505092915050565b60008060008060808587031215611cea57611ce96117da565b5b6000611cf887828801611a30565b9450506020611d0987828801611a30565b9350506040611d1a8782880161197b565b925050606085013567ffffffffffffffff811115611d3b57611d3a6117df565b5b611d4787828801611ca2565b91505092959194509250565b600067ffffffffffffffff821115611d6e57611d6d611ba5565b5b611d77826118ee565b9050602081019050919050565b6000611d97611d9284611d53565b611c05565b905082815260208101848484011115611db357611db2611ba0565b5b611dbe848285611c51565b509392505050565b600082601f830112611ddb57611dda611b9b565b5b8135611deb848260208601611d84565b91505092915050565b600060208284031215611e0a57611e096117da565b5b600082013567ffffffffffffffff811115611e2857611e276117df565b5b611e3484828501611dc6565b91505092915050565b60008060408385031215611e5457611e536117da565b5b6000611e6285828601611a30565b9250506020611e7385828601611a30565b9150509250929050565b7f4e487b7100000000000000000000000000000000000000000000000000000000600052602260045260246000fd5b60006002820490506001821680611ec457607f821691505b60208210811415611ed857611ed7611e7d565b5b50919050565b7f4552433732313a20617070726f76616c20746f2063757272656e74206f776e6560008201527f7200000000000000000000000000000000000000000000000000000000000000602082015250565b6000611f3a6021836118aa565b9150611f4582611ede565b604082019050919050565b60006020820190508181036000830152611f6981611f2d565b9050919050565b7f4552433732313a20617070726f76652063616c6c6572206973206e6f7420746f60008201527f6b656e206f776e6572206e6f7220617070726f76656420666f7220616c6c0000602082015250565b6000611fcc603e836118aa565b9150611fd782611f70565b604082019050919050565b60006020820190508181036000830152611ffb81611fbf565b9050919050565b7f4552433732313a2063616c6c6572206973206e6f7420746f6b656e206f776e6560008201527f72206e6f7220617070726f766564000000000000000000000000000000000000602082015250565b600061205e602e836118aa565b915061206982612002565b604082019050919050565b6000602082019050818103600083015261208d81612051565b9050919050565b7f4552433732313a20696e76616c696420746f6b656e2049440000000000000000600082015250565b60006120ca6018836118aa565b91506120d582612094565b602082019050919050565b600060208201905081810360008301526120f9816120bd565b9050919050565b7f4552433732313a2061646472657373207a65726f206973206e6f74206120766160008201527f6c6964206f776e65720000000000000000000000000000000000000000000000602082015250565b600061215c6029836118aa565b915061216782612100565b604082019050919050565b6000602082019050818103600083015261218b8161214f565b9050919050565b7f4e487b7100000000000000000000000000000000000000000000000000000000600052603260045260246000fd5b7f4e487b7100000000000000000000000000000000000000000000000000000000600052601160045260246000fd5b60006121fb8261195a565b91506122068361195a565b925082821015612219576122186121c1565b5b828203905092915050565b7f4552433732313a207472616e736665722066726f6d20696e636f72726563742060008201527f6f776e6572000000000000000000000000000000000000000000000000000000602082015250565b60006122806025836118aa565b915061228b82612224565b604082019050919050565b600060208201905081810360008301526122af81612273565b9050919050565b7f4552433732313a207472616e7366657220746f20746865207a65726f2061646460008201527f7265737300000000000000000000000000000000000000000000000000000000602082015250565b60006123126024836118aa565b915061231d826122b6565b604082019050919050565b6000602082019050818103600083015261234181612305565b9050919050565b60006123538261195a565b915061235e8361195a565b9250827fffffffffffffffffffffffffffffffffffffffffffffffffffffffffffffffff03821115612393576123926121c1565b5b828201905092915050565b7f4552433732313a20617070726f766520746f2063616c6c657200000000000000600082015250565b60006123d46019836118aa565b91506123df8261239e565b602082019050919050565b60006020820190508181036000830152612403816123c7565b9050919050565b7f4552433732313a207472616e7366657220746f206e6f6e20455243373231526560008201527f63656976657220696d706c656d656e7465720000000000000000000000000000602082015250565b60006124666032836118aa565b91506124718261240a565b604082019050919050565b6000602082019050818103600083015261249581612459565b9050919050565b600060608201905081810360008301526124b681866118ff565b90506124c56020830185611b05565b6124d260408301846119ef565b949350505050565b600081519050919050565b600082825260208201905092915050565b6000612501826124da565b61250b81856124e5565b935061251b8185602086016118bb565b612524816118ee565b840191505092915050565b600060808201905061254460008301876119ef565b61255160208301866119ef565b61255e6040830185611b05565b818103606083015261257081846124f6565b905095945050505050565b60008151905061258a81611810565b92915050565b6000602082840312156125a6576125a56117da565b5b60006125b48482850161257b565b91505092915050565b7f4552433732313a206d696e7420746f20746865207a65726f2061646472657373600082015250565b60006125f36020836118aa565b91506125fe826125bd565b602082019050919050565b60006020820190508181036000830152612622816125e6565b9050919050565b7f4552433732313a20746f6b656e20616c7265616479206d696e74656400000000600082015250565b600061265f601c836118aa565b915061266a82612629565b602082019050919050565b6000602082019050818103600083015261268e81612652565b905091905056fe416e204e465420772f20494420257320686173206265656e206d696e74656420746f202573a2646970667358221220e4b18ddd766b23cae66625add8706a923e534f7b4271a11ff465dd35eedebf5c64736f6c63430008090033",
  "linkReferences": {},
  "deployedLinkReferences": {}
}