{
  "_format": "hh-sol-artifact-1",
  "contractName": "Web3Mint",
  "sourceName": "contracts/Web3Mint.sol",
  "abi": [
    {
      "inputs": [],
      "stateMutability": "nonpayable",
      "type": "constructor"
    },
    {
      "anonymous": false,
      "inputs": [
        {
          "indexed": true,
          "internalType": "address",
          "name": "owner",
          "type": "address"
        },
        {
          "indexed": true,
          "internalType": "address",
          "name": "approved",
          "type": "address"
        },
        {
          "indexed": true,
          "internalType": "uint256",
          "name": "tokenId",
          "type": "uint256"
        }
      ],
      "name": "Approval",
      "type": "event"
    },
    {
      "anonymous": false,
      "inputs": [
        {
          "indexed": true,
          "internalType": "address",
          "name": "owner",
          "type": "address"
        },
        {
          "indexed": true,
          "internalType": "address",
          "name": "operator",
          "type": "address"
        },
        {
          "indexed": false,
          "internalType": "bool",
          "name": "approved",
          "type": "bool"
        }
      ],
      "name": "ApprovalForAll",
      "type": "event"
    },
    {
      "anonymous": false,
      "inputs": [
        {
          "indexed": true,
          "internalType": "address",
          "name": "from",
          "type": "address"
        },
        {
          "indexed": true,
          "internalType": "address",
          "name": "to",
          "type": "address"
        },
        {
          "indexed": true,
          "internalType": "uint256",
          "name": "tokenId",
          "type": "uint256"
        }
      ],
      "name": "Transfer",
      "type": "event"
    },
    {
      "inputs": [
        {
          "internalType": "address",
          "name": "to",
          "type": "address"
        },
        {
          "internalType": "uint256",
          "name": "tokenId",
          "type": "uint256"
        }
      ],
      "name": "approve",
      "outputs": [],
      "stateMutability": "nonpayable",
      "type": "function"
    },
    {
      "inputs": [
        {
          "internalType": "address",
          "name": "owner",
          "type": "address"
        }
      ],
      "name": "balanceOf",
      "outputs": [
        {
          "internalType": "uint256",
          "name": "",
          "type": "uint256"
        }
      ],
      "stateMutability": "view",
      "type": "function"
    },
    {
      "inputs": [
        {
          "internalType": "uint256",
          "name": "tokenId",
          "type": "uint256"
        }
      ],
      "name": "getApproved",
      "outputs": [
        {
          "internalType": "address",
          "name": "",
          "type": "address"
        }
      ],
      "stateMutability": "view",
      "type": "function"
    },
    {
      "inputs": [
        {
          "internalType": "address",
          "name": "owner",
          "type": "address"
        },
        {
          "internalType": "address",
          "name": "operator",
          "type": "address"
        }
      ],
      "name": "isApprovedForAll",
      "outputs": [
        {
          "internalType": "bool",
          "name": "",
          "type": "bool"
        }
      ],
      "stateMutability": "view",
      "type": "function"
    },
    {
      "inputs": [
        {
          "internalType": "string",
          "name": "name",
          "type": "string"
        },
        {
          "internalType": "string",
          "name": "description",
          "type": "string"
        },
        {
          "internalType": "string",
          "name": "imageURI",
          "type": "string"
        }
      ],
      "name": "mintIpfsNFT",
      "outputs": [],
      "stateMutability": "nonpayable",
      "type": "function"
    },
    {
      "inputs": [],
      "name": "name",
      "outputs": [
        {
          "internalType": "string",
          "name": "",
          "type": "string"
        }
      ],
      "stateMutability": "view",
      "type": "function"
    },
    {
      "inputs": [
        {
          "internalType": "uint256",
          "name": "tokenId",
          "type": "uint256"
        }
      ],
      "name": "ownerOf",
      "outputs": [
        {
          "internalType": "address",
          "name": "",
          "type": "address"
        }
      ],
      "stateMutability": "view",
      "type": "function"
    },
    {
      "inputs": [
        {
          "internalType": "address",
          "name": "from",
          "type": "address"
        },
        {
          "internalType": "address",
          "name": "to",
          "type": "address"
        },
        {
          "internalType": "uint256",
          "name": "tokenId",
          "type": "uint256"
        }
      ],
      "name": "safeTransferFrom",
      "outputs": [],
      "stateMutability": "nonpayable",
      "type": "function"
    },
    {
      "inputs": [
        {
          "internalType": "address",
          "name": "from",
          "type": "address"
        },
        {
          "internalType": "address",
          "name": "to",
          "type": "address"
        },
        {
          "internalType": "uint256",
          "name": "tokenId",
          "type": "uint256"
        },
        {
          "internalType": "bytes",
          "name": "data",
          "type": "bytes"
        }
      ],
      "name": "safeTransferFrom",
      "outputs": [],
      "stateMutability": "nonpayable",
      "type": "function"
    },
    {
      "inputs": [
        {
          "internalType": "address",
          "name": "operator",
          "type": "address"
        },
        {
          "internalType": "bool",
          "name": "approved",
          "type": "bool"
        }
      ],
      "name": "setApprovalForAll",
      "outputs": [],
      "stateMutability": "nonpayable",
      "type": "function"
    },
    {
      "inputs": [
        {
          "internalType": "bytes4",
          "name": "interfaceId",
          "type": "bytes4"
        }
      ],
      "name": "supportsInterface",
      "outputs": [
        {
          "internalType": "bool",
          "name": "",
          "type": "bool"
        }
      ],
      "stateMutability": "view",
      "type": "function"
    },
    {
      "inputs": [],
      "name": "symbol",
      "outputs": [
        {
          "internalType": "string",
          "name": "",
          "type": "string"
        }
      ],
      "stateMutability": "view",
      "type": "function"
    },
    {
      "inputs": [
        {
          "internalType": "uint256",
          "name": "_tokenId",
          "type": "uint256"
        }
      ],
      "name": "tokenURI",
      "outputs": [
        {
          "internalType": "string",
          "name": "",
          "type": "string"
        }
      ],
      "stateMutability": "view",
      "type": "function"
    },
    {
      "inputs": [
        {
          "internalType": "address",
          "name": "from",
          "type": "address"
        },
        {
          "internalType": "address",
          "name": "to",
          "type": "address"
        },
        {
          "internalType": "uint256",
          "name": "tokenId",
          "type": "uint256"
        }
      ],
      "name": "transferFrom",
      "outputs": [],
      "stateMutability": "nonpayable",
      "type": "function"
    }
  ],
  "bytecode": "0x60806040523480156200001157600080fd5b506040518060400160405280600a81526020017f48616b616e61694e4654000000000000000000000000000000000000000000008152506040518060400160405280600481526020017f484b4e4900000000000000000000000000000000000000000000000000000000815250816000908051906020019062000096929190620001cf565b508060019080519060200190620000af929190620001cf565b505050620000fd6040518060400160405280601881526020017f54686973206973206d79204e465420636f6e74726163742e00000000000000008152506200010360201b62000b031760201c565b620003ac565b620001a3816040516024016200011a919062000323565b6040516020818303038152906040527f41304fac000000000000000000000000000000000000000000000000000000007bffffffffffffffffffffffffffffffffffffffffffffffffffffffff19166020820180517bffffffffffffffffffffffffffffffffffffffffffffffffffffffff8381831617835250505050620001a660201b60201c565b50565b60008151905060006a636f6e736f6c652e6c6f679050602083016000808483855afa5050505050565b828054620001dd9062000376565b90600052602060002090601f0160209004810192826200020157600085556200024d565b82601f106200021c57805160ff19168380011785556200024d565b828001600101855582156200024d579182015b828111156200024c5782518255916020019190600101906200022f565b5b5090506200025c919062000260565b5090565b5b808211156200027b57600081600090555060010162000261565b5090565b600081519050919050565b600082825260208201905092915050565b60005b83811015620002bb5780820151818401526020810190506200029e565b83811115620002cb576000848401525b50505050565b6000601f19601f8301169050919050565b6000620002ef826200027f565b620002fb81856200028a565b93506200030d8185602086016200029b565b6200031881620002d1565b840191505092915050565b600060208201905081810360008301526200033f8184620002e2565b905092915050565b7f4e487b7100000000000000000000000000000000000000000000000000000000600052602260045260246000fd5b600060028204905060018216806200038f57607f821691505b60208210811415620003a657620003a562000347565b5b50919050565b612cc480620003bc6000396000f3fe608060405234801561001057600080fd5b50600436106100ea5760003560e01c80636352211e1161008c578063a22cb46511610066578063a22cb4651461025b578063b88d4fde14610277578063c87b56dd14610293578063e985e9c5146102c3576100ea565b80636352211e146101dd57806370a082311461020d57806395d89b411461023d576100ea565b8063095ea7b3116100c8578063095ea7b31461016d578063138e1bdd1461018957806323b872dd146101a557806342842e0e146101c1576100ea565b806301ffc9a7146100ef57806306fdde031461011f578063081812fc1461013d575b600080fd5b610109600480360381019061010491906119ed565b6102f3565b6040516101169190611a35565b60405180910390f35b6101276103d5565b6040516101349190611ae9565b60405180910390f35b61015760048036038101906101529190611b41565b610467565b6040516101649190611baf565b60405180910390f35b61018760048036038101906101829190611bf6565b6104ad565b005b6101a3600480360381019061019e9190611d6b565b6105c5565b005b6101bf60048036038101906101ba9190611e12565b6106af565b005b6101db60048036038101906101d69190611e12565b61070f565b005b6101f760048036038101906101f29190611b41565b61072f565b6040516102049190611baf565b60405180910390f35b61022760048036038101906102229190611e65565b6107e1565b6040516102349190611ea1565b60405180910390f35b610245610899565b6040516102529190611ae9565b60405180910390f35b61027560048036038101906102709190611ee8565b61092b565b005b610291600480360381019061028c9190611fc9565b610941565b005b6102ad60048036038101906102a89190611b41565b6109a3565b6040516102ba9190611ae9565b60405180910390f35b6102dd60048036038101906102d8919061204c565b610a6f565b6040516102ea9190611a35565b60405180910390f35b60007f80ac58cd000000000000000000000000000000000000000000000000000000007bffffffffffffffffffffffffffffffffffffffffffffffffffffffff1916827bffffffffffffffffffffffffffffffffffffffffffffffffffffffff191614806103be57507f5b5e139f000000000000000000000000000000000000000000000000000000007bffffffffffffffffffffffffffffffffffffffffffffffffffffffff1916827bffffffffffffffffffffffffffffffffffffffffffffffffffffffff1916145b806103ce57506103cd82610b9c565b5b9050919050565b6060600080546103e4906120bb565b80601f0160208091040260200160405190810160405280929190818152602001828054610410906120bb565b801561045d5780601f106104325761010080835404028352916020019161045d565b820191906000526020600020905b81548152906001019060200180831161044057829003601f168201915b5050505050905090565b600061047282610c06565b6004600083815260200190815260200160002060009054906101000a900473ffffffffffffffffffffffffffffffffffffffff169050919050565b60006104b88261072f565b90508073ffffffffffffffffffffffffffffffffffffffff168373ffffffffffffffffffffffffffffffffffffffff161415610529576040517f08c379a00000000000000000000000000000000000000000000000000000000081526004016105209061215f565b60405180910390fd5b8073ffffffffffffffffffffffffffffffffffffffff16610548610c51565b73ffffffffffffffffffffffffffffffffffffffff161480610577575061057681610571610c51565b610a6f565b5b6105b6576040517f08c379a00000000000000000000000000000000000000000000000000000000081526004016105ad906121f1565b60405180910390fd5b6105c08383610c59565b505050565b60006105d16007610d12565b90506105dd3382610d20565b60066040518060600160405280868152602001858152602001848152509080600181540180825580915050600190039060005260206000209060030201600090919091909150600082015181600001908051906020019061063f9291906118de565b50602082015181600101908051906020019061065c9291906118de565b5060408201518160020190805190602001906106799291906118de565b50505061069f604051806060016040528060258152602001612c2a602591398233610d3e565b6106a96007610ddd565b50505050565b6106c06106ba610c51565b82610df3565b6106ff576040517f08c379a00000000000000000000000000000000000000000000000000000000081526004016106f690612283565b60405180910390fd5b61070a838383610e88565b505050565b61072a83838360405180602001604052806000815250610941565b505050565b6000806002600084815260200190815260200160002060009054906101000a900473ffffffffffffffffffffffffffffffffffffffff169050600073ffffffffffffffffffffffffffffffffffffffff168173ffffffffffffffffffffffffffffffffffffffff1614156107d8576040517f08c379a00000000000000000000000000000000000000000000000000000000081526004016107cf906122ef565b60405180910390fd5b80915050919050565b60008073ffffffffffffffffffffffffffffffffffffffff168273ffffffffffffffffffffffffffffffffffffffff161415610852576040517f08c379a000000000000000000000000000000000000000000000000000000000815260040161084990612381565b60405180910390fd5b600360008373ffffffffffffffffffffffffffffffffffffffff1673ffffffffffffffffffffffffffffffffffffffff168152602001908152602001600020549050919050565b6060600180546108a8906120bb565b80601f01602080910402602001604051908101604052809291908181526020018280546108d4906120bb565b80156109215780601f106108f657610100808354040283529160200191610921565b820191906000526020600020905b81548152906001019060200180831161090457829003601f168201915b5050505050905090565b61093d610936610c51565b83836110ef565b5050565b61095261094c610c51565b83610df3565b610991576040517f08c379a000000000000000000000000000000000000000000000000000000000815260040161098890612283565b60405180910390fd5b61099d8484848461125c565b50505050565b60606000610a3f600684815481106109be576109bd6123a1565b5b9060005260206000209060030201600001600685815481106109e3576109e26123a1565b5b906000526020600020906003020160010160068681548110610a0857610a076123a1565b5b9060005260206000209060030201600201604051602001610a2b9392919061259f565b6040516020818303038152906040526112b8565b9050600081604051602001610a549190612679565b60405160208183030381529060405290508092505050919050565b6000600560008473ffffffffffffffffffffffffffffffffffffffff1673ffffffffffffffffffffffffffffffffffffffff16815260200190815260200160002060008373ffffffffffffffffffffffffffffffffffffffff1673ffffffffffffffffffffffffffffffffffffffff16815260200190815260200160002060009054906101000a900460ff16905092915050565b610b9981604051602401610b179190611ae9565b6040516020818303038152906040527f41304fac000000000000000000000000000000000000000000000000000000007bffffffffffffffffffffffffffffffffffffffffffffffffffffffff19166020820180517bffffffffffffffffffffffffffffffffffffffffffffffffffffffff8381831617835250505050611450565b50565b60007f01ffc9a7000000000000000000000000000000000000000000000000000000007bffffffffffffffffffffffffffffffffffffffffffffffffffffffff1916827bffffffffffffffffffffffffffffffffffffffffffffffffffffffff1916149050919050565b610c0f81611479565b610c4e576040517f08c379a0000000000000000000000000000000000000000000000000000000008152600401610c45906122ef565b60405180910390fd5b50565b600033905090565b816004600083815260200190815260200160002060006101000a81548173ffffffffffffffffffffffffffffffffffffffff021916908373ffffffffffffffffffffffffffffffffffffffff160217905550808273ffffffffffffffffffffffffffffffffffffffff16610ccc8361072f565b73ffffffffffffffffffffffffffffffffffffffff167f8c5be1e5ebec7d5bd14f71427d1e84f3dd0314c0f7b2291e5b200ac8c7c3b92560405160405180910390a45050565b600081600001549050919050565b610d3a8282604051806020016040528060008152506114e5565b5050565b610dd8838383604051602401610d569392919061269b565b6040516020818303038152906040527f1c7ec448000000000000000000000000000000000000000000000000000000007bffffffffffffffffffffffffffffffffffffffffffffffffffffffff19166020820180517bffffffffffffffffffffffffffffffffffffffffffffffffffffffff8381831617835250505050611450565b505050565b6001816000016000828254019250508190555050565b600080610dff8361072f565b90508073ffffffffffffffffffffffffffffffffffffffff168473ffffffffffffffffffffffffffffffffffffffff161480610e415750610e408185610a6f565b5b80610e7f57508373ffffffffffffffffffffffffffffffffffffffff16610e6784610467565b73ffffffffffffffffffffffffffffffffffffffff16145b91505092915050565b8273ffffffffffffffffffffffffffffffffffffffff16610ea88261072f565b73ffffffffffffffffffffffffffffffffffffffff1614610efe576040517f08c379a0000000000000000000000000000000000000000000000000000000008152600401610ef59061274b565b60405180910390fd5b600073ffffffffffffffffffffffffffffffffffffffff168273ffffffffffffffffffffffffffffffffffffffff161415610f6e576040517f08c379a0000000000000000000000000000000000000000000000000000000008152600401610f65906127dd565b60405180910390fd5b610f79838383611540565b610f84600082610c59565b6001600360008573ffffffffffffffffffffffffffffffffffffffff1673ffffffffffffffffffffffffffffffffffffffff1681526020019081526020016000206000828254610fd4919061282c565b925050819055506001600360008473ffffffffffffffffffffffffffffffffffffffff1673ffffffffffffffffffffffffffffffffffffffff168152602001908152602001600020600082825461102b9190612860565b92505081905550816002600083815260200190815260200160002060006101000a81548173ffffffffffffffffffffffffffffffffffffffff021916908373ffffffffffffffffffffffffffffffffffffffff160217905550808273ffffffffffffffffffffffffffffffffffffffff168473ffffffffffffffffffffffffffffffffffffffff167fddf252ad1be2c89b69c2b068fc378daa952ba7f163c4a11628f55a4df523b3ef60405160405180910390a46110ea838383611545565b505050565b8173ffffffffffffffffffffffffffffffffffffffff168373ffffffffffffffffffffffffffffffffffffffff16141561115e576040517f08c379a000000000000000000000000000000000000000000000000000000000815260040161115590612902565b60405180910390fd5b80600560008573ffffffffffffffffffffffffffffffffffffffff1673ffffffffffffffffffffffffffffffffffffffff16815260200190815260200160002060008473ffffffffffffffffffffffffffffffffffffffff1673ffffffffffffffffffffffffffffffffffffffff16815260200190815260200160002060006101000a81548160ff0219169083151502179055508173ffffffffffffffffffffffffffffffffffffffff168373ffffffffffffffffffffffffffffffffffffffff167f17307eab39ab6107e8899845ad3d59bd9653f200f220920489ca2b5937696c318360405161124f9190611a35565b60405180910390a3505050565b611267848484610e88565b6112738484848461154a565b6112b2576040517f08c379a00000000000000000000000000000000000000000000000000000000081526004016112a990612994565b60405180910390fd5b50505050565b606060008251905060008114156112e1576040518060200160405280600081525091505061144b565b600060036002836112f29190612860565b6112fc91906129e3565b60046113089190612a14565b905060006020826113199190612860565b67ffffffffffffffff81111561133257611331611c40565b5b6040519080825280601f01601f1916602001820160405280156113645781602001600182028036833780820191505090505b5090506000604051806060016040528060408152602001612c4f604091399050600181016020830160005b868110156114085760038101905062ffffff818a015116603f8160121c168401518060081b905060ff603f83600c1c1686015116810190508060081b905060ff603f8360061c1686015116810190508060081b905060ff603f831686015116810190508060e01b9050808452600484019350505061138f565b50600386066001811461142257600281146114325761143d565b613d3d60f01b600283035261143d565b603d60f81b60018303525b508484525050819450505050505b919050565b60008151905060006a636f6e736f6c652e6c6f679050602083016000808483855afa5050505050565b60008073ffffffffffffffffffffffffffffffffffffffff166002600084815260200190815260200160002060009054906101000a900473ffffffffffffffffffffffffffffffffffffffff1673ffffffffffffffffffffffffffffffffffffffff1614159050919050565b6114ef83836116e1565b6114fc600084848461154a565b61153b576040517f08c379a000000000000000000000000000000000000000000000000000000000815260040161153290612994565b60405180910390fd5b505050565b505050565b505050565b600061156b8473ffffffffffffffffffffffffffffffffffffffff166118bb565b156116d4578373ffffffffffffffffffffffffffffffffffffffff1663150b7a02611594610c51565b8786866040518563ffffffff1660e01b81526004016115b69493929190612ac3565b602060405180830381600087803b1580156115d057600080fd5b505af192505050801561160157506040513d601f19601f820116820180604052508101906115fe9190612b24565b60015b611684573d8060008114611631576040519150601f19603f3d011682016040523d82523d6000602084013e611636565b606091505b5060008151141561167c576040517f08c379a000000000000000000000000000000000000000000000000000000000815260040161167390612994565b60405180910390fd5b805181602001fd5b63150b7a0260e01b7bffffffffffffffffffffffffffffffffffffffffffffffffffffffff1916817bffffffffffffffffffffffffffffffffffffffffffffffffffffffff1916149150506116d9565b600190505b949350505050565b600073ffffffffffffffffffffffffffffffffffffffff168273ffffffffffffffffffffffffffffffffffffffff161415611751576040517f08c379a000000000000000000000000000000000000000000000000000000000815260040161174890612b9d565b60405180910390fd5b61175a81611479565b1561179a576040517f08c379a000000000000000000000000000000000000000000000000000000000815260040161179190612c09565b60405180910390fd5b6117a660008383611540565b6001600360008473ffffffffffffffffffffffffffffffffffffffff1673ffffffffffffffffffffffffffffffffffffffff16815260200190815260200160002060008282546117f69190612860565b92505081905550816002600083815260200190815260200160002060006101000a81548173ffffffffffffffffffffffffffffffffffffffff021916908373ffffffffffffffffffffffffffffffffffffffff160217905550808273ffffffffffffffffffffffffffffffffffffffff16600073ffffffffffffffffffffffffffffffffffffffff167fddf252ad1be2c89b69c2b068fc378daa952ba7f163c4a11628f55a4df523b3ef60405160405180910390a46118b760008383611545565b5050565b6000808273ffffffffffffffffffffffffffffffffffffffff163b119050919050565b8280546118ea906120bb565b90600052602060002090601f01602090048101928261190c5760008555611953565b82601f1061192557805160ff1916838001178555611953565b82800160010185558215611953579182015b82811115611952578251825591602001919060010190611937565b5b5090506119609190611964565b5090565b5b8082111561197d576000816000905550600101611965565b5090565b6000604051905090565b600080fd5b600080fd5b60007fffffffff0000000000000000000000000000000000000000000000000000000082169050919050565b6119ca81611995565b81146119d557600080fd5b50565b6000813590506119e7816119c1565b92915050565b600060208284031215611a0357611a0261198b565b5b6000611a11848285016119d8565b91505092915050565b60008115159050919050565b611a2f81611a1a565b82525050565b6000602082019050611a4a6000830184611a26565b92915050565b600081519050919050565b600082825260208201905092915050565b60005b83811015611a8a578082015181840152602081019050611a6f565b83811115611a99576000848401525b50505050565b6000601f19601f8301169050919050565b6000611abb82611a50565b611ac58185611a5b565b9350611ad5818560208601611a6c565b611ade81611a9f565b840191505092915050565b60006020820190508181036000830152611b038184611ab0565b905092915050565b6000819050919050565b611b1e81611b0b565b8114611b2957600080fd5b50565b600081359050611b3b81611b15565b92915050565b600060208284031215611b5757611b5661198b565b5b6000611b6584828501611b2c565b91505092915050565b600073ffffffffffffffffffffffffffffffffffffffff82169050919050565b6000611b9982611b6e565b9050919050565b611ba981611b8e565b82525050565b6000602082019050611bc46000830184611ba0565b92915050565b611bd381611b8e565b8114611bde57600080fd5b50565b600081359050611bf081611bca565b92915050565b60008060408385031215611c0d57611c0c61198b565b5b6000611c1b85828601611be1565b9250506020611c2c85828601611b2c565b9150509250929050565b600080fd5b600080fd5b7f4e487b7100000000000000000000000000000000000000000000000000000000600052604160045260246000fd5b611c7882611a9f565b810181811067ffffffffffffffff82111715611c9757611c96611c40565b5b80604052505050565b6000611caa611981565b9050611cb68282611c6f565b919050565b600067ffffffffffffffff821115611cd657611cd5611c40565b5b611cdf82611a9f565b9050602081019050919050565b82818337600083830152505050565b6000611d0e611d0984611cbb565b611ca0565b905082815260208101848484011115611d2a57611d29611c3b565b5b611d35848285611cec565b509392505050565b600082601f830112611d5257611d51611c36565b5b8135611d62848260208601611cfb565b91505092915050565b600080600060608486031215611d8457611d8361198b565b5b600084013567ffffffffffffffff811115611da257611da1611990565b5b611dae86828701611d3d565b935050602084013567ffffffffffffffff811115611dcf57611dce611990565b5b611ddb86828701611d3d565b925050604084013567ffffffffffffffff811115611dfc57611dfb611990565b5b611e0886828701611d3d565b9150509250925092565b600080600060608486031215611e2b57611e2a61198b565b5b6000611e3986828701611be1565b9350506020611e4a86828701611be1565b9250506040611e5b86828701611b2c565b9150509250925092565b600060208284031215611e7b57611e7a61198b565b5b6000611e8984828501611be1565b91505092915050565b611e9b81611b0b565b82525050565b6000602082019050611eb66000830184611e92565b92915050565b611ec581611a1a565b8114611ed057600080fd5b50565b600081359050611ee281611ebc565b92915050565b60008060408385031215611eff57611efe61198b565b5b6000611f0d85828601611be1565b9250506020611f1e85828601611ed3565b9150509250929050565b600067ffffffffffffffff821115611f4357611f42611c40565b5b611f4c82611a9f565b9050602081019050919050565b6000611f6c611f6784611f28565b611ca0565b905082815260208101848484011115611f8857611f87611c3b565b5b611f93848285611cec565b509392505050565b600082601f830112611fb057611faf611c36565b5b8135611fc0848260208601611f59565b91505092915050565b60008060008060808587031215611fe357611fe261198b565b5b6000611ff187828801611be1565b945050602061200287828801611be1565b935050604061201387828801611b2c565b925050606085013567ffffffffffffffff81111561203457612033611990565b5b61204087828801611f9b565b91505092959194509250565b600080604083850312156120635761206261198b565b5b600061207185828601611be1565b925050602061208285828601611be1565b9150509250929050565b7f4e487b7100000000000000000000000000000000000000000000000000000000600052602260045260246000fd5b600060028204905060018216806120d357607f821691505b602082108114156120e7576120e661208c565b5b50919050565b7f4552433732313a20617070726f76616c20746f2063757272656e74206f776e6560008201527f7200000000000000000000000000000000000000000000000000000000000000602082015250565b6000612149602183611a5b565b9150612154826120ed565b604082019050919050565b600060208201905081810360008301526121788161213c565b9050919050565b7f4552433732313a20617070726f76652063616c6c6572206973206e6f7420746f60008201527f6b656e206f776e6572206e6f7220617070726f76656420666f7220616c6c0000602082015250565b60006121db603e83611a5b565b91506121e68261217f565b604082019050919050565b6000602082019050818103600083015261220a816121ce565b9050919050565b7f4552433732313a2063616c6c6572206973206e6f7420746f6b656e206f776e6560008201527f72206e6f7220617070726f766564000000000000000000000000000000000000602082015250565b600061226d602e83611a5b565b915061227882612211565b604082019050919050565b6000602082019050818103600083015261229c81612260565b9050919050565b7f4552433732313a20696e76616c696420746f6b656e2049440000000000000000600082015250565b60006122d9601883611a5b565b91506122e4826122a3565b602082019050919050565b60006020820190508181036000830152612308816122cc565b9050919050565b7f4552433732313a2061646472657373207a65726f206973206e6f74206120766160008201527f6c6964206f776e65720000000000000000000000000000000000000000000000602082015250565b600061236b602983611a5b565b91506123768261230f565b604082019050919050565b6000602082019050818103600083015261239a8161235e565b9050919050565b7f4e487b7100000000000000000000000000000000000000000000000000000000600052603260045260246000fd5b600081905092915050565b7f7b226e616d65223a202200000000000000000000000000000000000000000000600082015250565b6000612411600a836123d0565b915061241c826123db565b600a82019050919050565b60008190508160005260206000209050919050565b60008154612449816120bb565b61245381866123d0565b9450600182166000811461246e576001811461247f576124b2565b60ff198316865281860193506124b2565b61248885612427565b60005b838110156124aa5781548189015260018201915060208101905061248b565b838801955050505b50505092915050565b7f222c20226465736372697074696f6e223a202200000000000000000000000000600082015250565b60006124f16013836123d0565b91506124fc826124bb565b601382019050919050565b7f222c2022696d616765223a2022697066733a2f2f000000000000000000000000600082015250565b600061253d6014836123d0565b915061254882612507565b601482019050919050565b7f227d000000000000000000000000000000000000000000000000000000000000600082015250565b60006125896002836123d0565b915061259482612553565b600282019050919050565b60006125aa82612404565b91506125b6828661243c565b91506125c1826124e4565b91506125cd828561243c565b91506125d882612530565b91506125e4828461243c565b91506125ef8261257c565b9150819050949350505050565b7f646174613a6170706c69636174696f6e2f6a736f6e3b6261736536342c000000600082015250565b6000612632601d836123d0565b915061263d826125fc565b601d82019050919050565b600061265382611a50565b61265d81856123d0565b935061266d818560208601611a6c565b80840191505092915050565b600061268482612625565b91506126908284612648565b915081905092915050565b600060608201905081810360008301526126b58186611ab0565b90506126c46020830185611e92565b6126d16040830184611ba0565b949350505050565b7f4552433732313a207472616e736665722066726f6d20696e636f72726563742060008201527f6f776e6572000000000000000000000000000000000000000000000000000000602082015250565b6000612735602583611a5b565b9150612740826126d9565b604082019050919050565b6000602082019050818103600083015261276481612728565b9050919050565b7f4552433732313a207472616e7366657220746f20746865207a65726f2061646460008201527f7265737300000000000000000000000000000000000000000000000000000000602082015250565b60006127c7602483611a5b565b91506127d28261276b565b604082019050919050565b600060208201905081810360008301526127f6816127ba565b9050919050565b7f4e487b7100000000000000000000000000000000000000000000000000000000600052601160045260246000fd5b600061283782611b0b565b915061284283611b0b565b925082821015612855576128546127fd565b5b828203905092915050565b600061286b82611b0b565b915061287683611b0b565b9250827fffffffffffffffffffffffffffffffffffffffffffffffffffffffffffffffff038211156128ab576128aa6127fd565b5b828201905092915050565b7f4552433732313a20617070726f766520746f2063616c6c657200000000000000600082015250565b60006128ec601983611a5b565b91506128f7826128b6565b602082019050919050565b6000602082019050818103600083015261291b816128df565b9050919050565b7f4552433732313a207472616e7366657220746f206e6f6e20455243373231526560008201527f63656976657220696d706c656d656e7465720000000000000000000000000000602082015250565b600061297e603283611a5b565b915061298982612922565b604082019050919050565b600060208201905081810360008301526129ad81612971565b9050919050565b7f4e487b7100000000000000000000000000000000000000000000000000000000600052601260045260246000fd5b60006129ee82611b0b565b91506129f983611b0b565b925082612a0957612a086129b4565b5b828204905092915050565b6000612a1f82611b0b565b9150612a2a83611b0b565b9250817fffffffffffffffffffffffffffffffffffffffffffffffffffffffffffffffff0483118215151615612a6357612a626127fd565b5b828202905092915050565b600081519050919050565b600082825260208201905092915050565b6000612a9582612a6e565b612a9f8185612a79565b9350612aaf818560208601611a6c565b612ab881611a9f565b840191505092915050565b6000608082019050612ad86000830187611ba0565b612ae56020830186611ba0565b612af26040830185611e92565b8181036060830152612b048184612a8a565b905095945050505050565b600081519050612b1e816119c1565b92915050565b600060208284031215612b3a57612b3961198b565b5b6000612b4884828501612b0f565b91505092915050565b7f4552433732313a206d696e7420746f20746865207a65726f2061646472657373600082015250565b6000612b87602083611a5b565b9150612b9282612b51565b602082019050919050565b60006020820190508181036000830152612bb681612b7a565b9050919050565b7f4552433732313a20746f6b656e20616c7265616479206d696e74656400000000600082015250565b6000612bf3601c83611a5b565b9150612bfe82612bbd565b602082019050919050565b60006020820190508181036000830152612c2281612be6565b905091905056fe416e204e465420772f20494420257320686173206265656e206d696e74656420746f2025734142434445464748494a4b4c4d4e4f505152535455565758595a6162636465666768696a6b6c6d6e6f707172737475767778797a303132333435363738392b2fa2646970667358221220800f0842ab3f850e996fe74893baeb0d662aafab4c288d29d82c05bce650d44c64736f6c63430008090033",
  "linkReferences": {},
  "deployedLinkReferences": {}
}