{
  "_format": "hh-sol-artifact-1",
  "contractName": "Web3Mint",
  "sourceName": "contracts/Web3Mint.sol",
  "abi": [
    {
      "inputs": [],
      "stateMutability": "nonpayable",
      "type": "constructor"
    },
    {
      "anonymous": false,
      "inputs": [
        {
          "indexed": true,
          "internalType": "address",
          "name": "owner",
          "type": "address"
        },
        {
          "indexed": true,
          "internalType": "address",
          "name": "approved",
          "type": "address"
        },
        {
          "indexed": true,
          "internalType": "uint256",
          "name": "tokenId",
          "type": "uint256"
        }
      ],
      "name": "Approval",
      "type": "event"
    },
    {
      "anonymous": false,
      "inputs": [
        {
          "indexed": true,
          "internalType": "address",
          "name": "owner",
          "type": "address"
        },
        {
          "indexed": true,
          "internalType": "address",
          "name": "operator",
          "type": "address"
        },
        {
          "indexed": false,
          "internalType": "bool",
          "name": "approved",
          "type": "bool"
        }
      ],
      "name": "ApprovalForAll",
      "type": "event"
    },
    {
      "anonymous": false,
      "inputs": [
        {
          "indexed": true,
          "internalType": "address",
          "name": "from",
          "type": "address"
        },
        {
          "indexed": true,
          "internalType": "address",
          "name": "to",
          "type": "address"
        },
        {
          "indexed": true,
          "internalType": "uint256",
          "name": "tokenId",
          "type": "uint256"
        }
      ],
      "name": "Transfer",
      "type": "event"
    },
    {
      "inputs": [
        {
          "internalType": "address",
          "name": "to",
          "type": "address"
        },
        {
          "internalType": "uint256",
          "name": "tokenId",
          "type": "uint256"
        }
      ],
      "name": "approve",
      "outputs": [],
      "stateMutability": "nonpayable",
      "type": "function"
    },
    {
      "inputs": [
        {
          "internalType": "address",
          "name": "owner",
          "type": "address"
        }
      ],
      "name": "balanceOf",
      "outputs": [
        {
          "internalType": "uint256",
          "name": "",
          "type": "uint256"
        }
      ],
      "stateMutability": "view",
      "type": "function"
    },
    {
      "inputs": [
        {
          "internalType": "uint256",
          "name": "tokenId",
          "type": "uint256"
        }
      ],
      "name": "getApproved",
      "outputs": [
        {
          "internalType": "address",
          "name": "",
          "type": "address"
        }
      ],
      "stateMutability": "view",
      "type": "function"
    },
    {
      "inputs": [],
      "name": "getLatestId",
      "outputs": [
        {
          "internalType": "uint256",
          "name": "",
          "type": "uint256"
        }
      ],
      "stateMutability": "view",
      "type": "function"
    },
    {
      "inputs": [
        {
          "internalType": "address",
          "name": "owner",
          "type": "address"
        },
        {
          "internalType": "address",
          "name": "operator",
          "type": "address"
        }
      ],
      "name": "isApprovedForAll",
      "outputs": [
        {
          "internalType": "bool",
          "name": "",
          "type": "bool"
        }
      ],
      "stateMutability": "view",
      "type": "function"
    },
    {
      "inputs": [
        {
          "internalType": "string",
          "name": "metadataURI",
          "type": "string"
        },
        {
          "internalType": "address",
          "name": "receiver",
          "type": "address"
        }
      ],
      "name": "mintIpfsNFT",
      "outputs": [],
      "stateMutability": "nonpayable",
      "type": "function"
    },
    {
      "inputs": [],
      "name": "name",
      "outputs": [
        {
          "internalType": "string",
          "name": "",
          "type": "string"
        }
      ],
      "stateMutability": "view",
      "type": "function"
    },
    {
      "inputs": [
        {
          "internalType": "uint256",
          "name": "tokenId",
          "type": "uint256"
        }
      ],
      "name": "ownerOf",
      "outputs": [
        {
          "internalType": "address",
          "name": "",
          "type": "address"
        }
      ],
      "stateMutability": "view",
      "type": "function"
    },
    {
      "inputs": [
        {
          "internalType": "address",
          "name": "from",
          "type": "address"
        },
        {
          "internalType": "address",
          "name": "to",
          "type": "address"
        },
        {
          "internalType": "uint256",
          "name": "tokenId",
          "type": "uint256"
        }
      ],
      "name": "safeTransferFrom",
      "outputs": [],
      "stateMutability": "nonpayable",
      "type": "function"
    },
    {
      "inputs": [
        {
          "internalType": "address",
          "name": "from",
          "type": "address"
        },
        {
          "internalType": "address",
          "name": "to",
          "type": "address"
        },
        {
          "internalType": "uint256",
          "name": "tokenId",
          "type": "uint256"
        },
        {
          "internalType": "bytes",
          "name": "data",
          "type": "bytes"
        }
      ],
      "name": "safeTransferFrom",
      "outputs": [],
      "stateMutability": "nonpayable",
      "type": "function"
    },
    {
      "inputs": [
        {
          "internalType": "address",
          "name": "operator",
          "type": "address"
        },
        {
          "internalType": "bool",
          "name": "approved",
          "type": "bool"
        }
      ],
      "name": "setApprovalForAll",
      "outputs": [],
      "stateMutability": "nonpayable",
      "type": "function"
    },
    {
      "inputs": [
        {
          "internalType": "bytes4",
          "name": "interfaceId",
          "type": "bytes4"
        }
      ],
      "name": "supportsInterface",
      "outputs": [
        {
          "internalType": "bool",
          "name": "",
          "type": "bool"
        }
      ],
      "stateMutability": "view",
      "type": "function"
    },
    {
      "inputs": [],
      "name": "symbol",
      "outputs": [
        {
          "internalType": "string",
          "name": "",
          "type": "string"
        }
      ],
      "stateMutability": "view",
      "type": "function"
    },
    {
      "inputs": [
        {
          "internalType": "uint256",
          "name": "_tokenId",
          "type": "uint256"
        }
      ],
      "name": "tokenURI",
      "outputs": [
        {
          "internalType": "string",
          "name": "",
          "type": "string"
        }
      ],
      "stateMutability": "view",
      "type": "function"
    },
    {
      "inputs": [
        {
          "internalType": "address",
          "name": "from",
          "type": "address"
        },
        {
          "internalType": "address",
          "name": "to",
          "type": "address"
        },
        {
          "internalType": "uint256",
          "name": "tokenId",
          "type": "uint256"
        }
      ],
      "name": "transferFrom",
      "outputs": [],
      "stateMutability": "nonpayable",
      "type": "function"
    }
  ],
  "bytecode": "0x60806040523480156200001157600080fd5b506040518060400160405280600a81526020017f48616b616e61694e4654000000000000000000000000000000000000000000008152506040518060400160405280600481526020017f484b4e4900000000000000000000000000000000000000000000000000000000815250816000908051906020019062000096929190620001cf565b508060019080519060200190620000af929190620001cf565b505050620000fd6040518060400160405280601881526020017f54686973206973206d79204e465420636f6e74726163742e00000000000000008152506200010360201b62000b831760201c565b620003ac565b620001a3816040516024016200011a919062000323565b6040516020818303038152906040527f41304fac000000000000000000000000000000000000000000000000000000007bffffffffffffffffffffffffffffffffffffffffffffffffffffffff19166020820180517bffffffffffffffffffffffffffffffffffffffffffffffffffffffff8381831617835250505050620001a660201b60201c565b50565b60008151905060006a636f6e736f6c652e6c6f679050602083016000808483855afa5050505050565b828054620001dd9062000376565b90600052602060002090601f0160209004810192826200020157600085556200024d565b82601f106200021c57805160ff19168380011785556200024d565b828001600101855582156200024d579182015b828111156200024c5782518255916020019190600101906200022f565b5b5090506200025c919062000260565b5090565b5b808211156200027b57600081600090555060010162000261565b5090565b600081519050919050565b600082825260208201905092915050565b60005b83811015620002bb5780820151818401526020810190506200029e565b83811115620002cb576000848401525b50505050565b6000601f19601f8301169050919050565b6000620002ef826200027f565b620002fb81856200028a565b93506200030d8185602086016200029b565b6200031881620002d1565b840191505092915050565b600060208201905081810360008301526200033f8184620002e2565b905092915050565b7f4e487b7100000000000000000000000000000000000000000000000000000000600052602260045260246000fd5b600060028204905060018216806200038f57607f821691505b60208210811415620003a657620003a562000347565b5b50919050565b61279c80620003bc6000396000f3fe608060405234801561001057600080fd5b50600436106100f55760003560e01c806370a0823111610097578063b88d4fde11610066578063b88d4fde14610282578063c87b56dd1461029e578063e985e9c5146102ce578063eff91c7e146102fe576100f5565b806370a08231146101fc57806395d89b411461022c578063a22cb4651461024a578063ae0e9f9514610266576100f5565b8063095ea7b3116100d3578063095ea7b31461017857806323b872dd1461019457806342842e0e146101b05780636352211e146101cc576100f5565b806301ffc9a7146100fa57806306fdde031461012a578063081812fc14610148575b600080fd5b610114600480360381019061010f91906118d5565b61031c565b604051610121919061191d565b60405180910390f35b6101326103fe565b60405161013f91906119d1565b60405180910390f35b610162600480360381019061015d9190611a29565b610490565b60405161016f9190611a97565b60405180910390f35b610192600480360381019061018d9190611ade565b6104d6565b005b6101ae60048036038101906101a99190611b1e565b6105ee565b005b6101ca60048036038101906101c59190611b1e565b61064e565b005b6101e660048036038101906101e19190611a29565b61066e565b6040516101f39190611a97565b60405180910390f35b61021660048036038101906102119190611b71565b610720565b6040516102239190611bad565b60405180910390f35b6102346107d8565b60405161024191906119d1565b60405180910390f35b610264600480360381019061025f9190611bf4565b61086a565b005b610280600480360381019061027b9190611d69565b610880565b005b61029c60048036038101906102979190611e66565b6109b7565b005b6102b860048036038101906102b39190611a29565b610a19565b6040516102c591906119d1565b60405180910390f35b6102e860048036038101906102e39190611ee9565b610ad2565b6040516102f5919061191d565b60405180910390f35b610306610b66565b6040516103139190611bad565b60405180910390f35b60007f80ac58cd000000000000000000000000000000000000000000000000000000007bffffffffffffffffffffffffffffffffffffffffffffffffffffffff1916827bffffffffffffffffffffffffffffffffffffffffffffffffffffffff191614806103e757507f5b5e139f000000000000000000000000000000000000000000000000000000007bffffffffffffffffffffffffffffffffffffffffffffffffffffffff1916827bffffffffffffffffffffffffffffffffffffffffffffffffffffffff1916145b806103f757506103f682610c1c565b5b9050919050565b60606000805461040d90611f58565b80601f016020809104026020016040519081016040528092919081815260200182805461043990611f58565b80156104865780601f1061045b57610100808354040283529160200191610486565b820191906000526020600020905b81548152906001019060200180831161046957829003601f168201915b5050505050905090565b600061049b82610c86565b6004600083815260200190815260200160002060009054906101000a900473ffffffffffffffffffffffffffffffffffffffff169050919050565b60006104e18261066e565b90508073ffffffffffffffffffffffffffffffffffffffff168373ffffffffffffffffffffffffffffffffffffffff161415610552576040517f08c379a000000000000000000000000000000000000000000000000000000000815260040161054990611ffc565b60405180910390fd5b8073ffffffffffffffffffffffffffffffffffffffff16610571610cd1565b73ffffffffffffffffffffffffffffffffffffffff1614806105a0575061059f8161059a610cd1565b610ad2565b5b6105df576040517f08c379a00000000000000000000000000000000000000000000000000000000081526004016105d69061208e565b60405180910390fd5b6105e98383610cd9565b505050565b6105ff6105f9610cd1565b82610d92565b61063e576040517f08c379a000000000000000000000000000000000000000000000000000000000815260040161063590612120565b60405180910390fd5b610649838383610e27565b505050565b610669838383604051806020016040528060008152506109b7565b505050565b6000806002600084815260200190815260200160002060009054906101000a900473ffffffffffffffffffffffffffffffffffffffff169050600073ffffffffffffffffffffffffffffffffffffffff168173ffffffffffffffffffffffffffffffffffffffff161415610717576040517f08c379a000000000000000000000000000000000000000000000000000000000815260040161070e9061218c565b60405180910390fd5b80915050919050565b60008073ffffffffffffffffffffffffffffffffffffffff168273ffffffffffffffffffffffffffffffffffffffff161415610791576040517f08c379a00000000000000000000000000000000000000000000000000000000081526004016107889061221e565b60405180910390fd5b600360008373ffffffffffffffffffffffffffffffffffffffff1673ffffffffffffffffffffffffffffffffffffffff168152602001908152602001600020549050919050565b6060600180546107e790611f58565b80601f016020809104026020016040519081016040528092919081815260200182805461081390611f58565b80156108605780601f1061083557610100808354040283529160200191610860565b820191906000526020600020905b81548152906001019060200180831161084357829003601f168201915b5050505050905090565b61087c610875610cd1565b838361108e565b5050565b600061088c60076111fb565b90506108988282611209565b60066040518060200160405280858152509080600181540180825580915050600190039060005260206000200160009091909190915060008201518160000190805190602001906108ea9291906117c6565b505050610910604051806060016040528060258152602001612742602591398284611227565b61091a60076112c6565b61092460076111fb565b90506109303382611209565b60066040518060200160405280858152509080600181540180825580915050600190039060005260206000200160009091909190915060008201518160000190805190602001906109829291906117c6565b5050506109a8604051806060016040528060258152602001612742602591398233611227565b6109b260076112c6565b505050565b6109c86109c2610cd1565b83610d92565b610a07576040517f08c379a00000000000000000000000000000000000000000000000000000000081526004016109fe90612120565b60405180910390fd5b610a13848484846112dc565b50505050565b6060600060068381548110610a3157610a3061223e565b5b906000526020600020016000018054610a4990611f58565b80601f0160208091040260200160405190810160405280929190818152602001828054610a7590611f58565b8015610ac25780601f10610a9757610100808354040283529160200191610ac2565b820191906000526020600020905b815481529060010190602001808311610aa557829003601f168201915b5050505050905080915050919050565b6000600560008473ffffffffffffffffffffffffffffffffffffffff1673ffffffffffffffffffffffffffffffffffffffff16815260200190815260200160002060008373ffffffffffffffffffffffffffffffffffffffff1673ffffffffffffffffffffffffffffffffffffffff16815260200190815260200160002060009054906101000a900460ff16905092915050565b60006001610b7460076111fb565b610b7e919061229c565b905090565b610c1981604051602401610b9791906119d1565b6040516020818303038152906040527f41304fac000000000000000000000000000000000000000000000000000000007bffffffffffffffffffffffffffffffffffffffffffffffffffffffff19166020820180517bffffffffffffffffffffffffffffffffffffffffffffffffffffffff8381831617835250505050611338565b50565b60007f01ffc9a7000000000000000000000000000000000000000000000000000000007bffffffffffffffffffffffffffffffffffffffffffffffffffffffff1916827bffffffffffffffffffffffffffffffffffffffffffffffffffffffff1916149050919050565b610c8f81611361565b610cce576040517f08c379a0000000000000000000000000000000000000000000000000000000008152600401610cc59061218c565b60405180910390fd5b50565b600033905090565b816004600083815260200190815260200160002060006101000a81548173ffffffffffffffffffffffffffffffffffffffff021916908373ffffffffffffffffffffffffffffffffffffffff160217905550808273ffffffffffffffffffffffffffffffffffffffff16610d4c8361066e565b73ffffffffffffffffffffffffffffffffffffffff167f8c5be1e5ebec7d5bd14f71427d1e84f3dd0314c0f7b2291e5b200ac8c7c3b92560405160405180910390a45050565b600080610d9e8361066e565b90508073ffffffffffffffffffffffffffffffffffffffff168473ffffffffffffffffffffffffffffffffffffffff161480610de05750610ddf8185610ad2565b5b80610e1e57508373ffffffffffffffffffffffffffffffffffffffff16610e0684610490565b73ffffffffffffffffffffffffffffffffffffffff16145b91505092915050565b8273ffffffffffffffffffffffffffffffffffffffff16610e478261066e565b73ffffffffffffffffffffffffffffffffffffffff1614610e9d576040517f08c379a0000000000000000000000000000000000000000000000000000000008152600401610e9490612342565b60405180910390fd5b600073ffffffffffffffffffffffffffffffffffffffff168273ffffffffffffffffffffffffffffffffffffffff161415610f0d576040517f08c379a0000000000000000000000000000000000000000000000000000000008152600401610f04906123d4565b60405180910390fd5b610f188383836113cd565b610f23600082610cd9565b6001600360008573ffffffffffffffffffffffffffffffffffffffff1673ffffffffffffffffffffffffffffffffffffffff1681526020019081526020016000206000828254610f73919061229c565b925050819055506001600360008473ffffffffffffffffffffffffffffffffffffffff1673ffffffffffffffffffffffffffffffffffffffff1681526020019081526020016000206000828254610fca91906123f4565b92505081905550816002600083815260200190815260200160002060006101000a81548173ffffffffffffffffffffffffffffffffffffffff021916908373ffffffffffffffffffffffffffffffffffffffff160217905550808273ffffffffffffffffffffffffffffffffffffffff168473ffffffffffffffffffffffffffffffffffffffff167fddf252ad1be2c89b69c2b068fc378daa952ba7f163c4a11628f55a4df523b3ef60405160405180910390a46110898383836113d2565b505050565b8173ffffffffffffffffffffffffffffffffffffffff168373ffffffffffffffffffffffffffffffffffffffff1614156110fd576040517f08c379a00000000000000000000000000000000000000000000000000000000081526004016110f490612496565b60405180910390fd5b80600560008573ffffffffffffffffffffffffffffffffffffffff1673ffffffffffffffffffffffffffffffffffffffff16815260200190815260200160002060008473ffffffffffffffffffffffffffffffffffffffff1673ffffffffffffffffffffffffffffffffffffffff16815260200190815260200160002060006101000a81548160ff0219169083151502179055508173ffffffffffffffffffffffffffffffffffffffff168373ffffffffffffffffffffffffffffffffffffffff167f17307eab39ab6107e8899845ad3d59bd9653f200f220920489ca2b5937696c31836040516111ee919061191d565b60405180910390a3505050565b600081600001549050919050565b6112238282604051806020016040528060008152506113d7565b5050565b6112c183838360405160240161123f939291906124b6565b6040516020818303038152906040527f1c7ec448000000000000000000000000000000000000000000000000000000007bffffffffffffffffffffffffffffffffffffffffffffffffffffffff19166020820180517bffffffffffffffffffffffffffffffffffffffffffffffffffffffff8381831617835250505050611338565b505050565b6001816000016000828254019250508190555050565b6112e7848484610e27565b6112f384848484611432565b611332576040517f08c379a000000000000000000000000000000000000000000000000000000000815260040161132990612566565b60405180910390fd5b50505050565b60008151905060006a636f6e736f6c652e6c6f679050602083016000808483855afa5050505050565b60008073ffffffffffffffffffffffffffffffffffffffff166002600084815260200190815260200160002060009054906101000a900473ffffffffffffffffffffffffffffffffffffffff1673ffffffffffffffffffffffffffffffffffffffff1614159050919050565b505050565b505050565b6113e183836115c9565b6113ee6000848484611432565b61142d576040517f08c379a000000000000000000000000000000000000000000000000000000000815260040161142490612566565b60405180910390fd5b505050565b60006114538473ffffffffffffffffffffffffffffffffffffffff166117a3565b156115bc578373ffffffffffffffffffffffffffffffffffffffff1663150b7a0261147c610cd1565b8786866040518563ffffffff1660e01b815260040161149e94939291906125db565b602060405180830381600087803b1580156114b857600080fd5b505af19250505080156114e957506040513d601f19601f820116820180604052508101906114e6919061263c565b60015b61156c573d8060008114611519576040519150601f19603f3d011682016040523d82523d6000602084013e61151e565b606091505b50600081511415611564576040517f08c379a000000000000000000000000000000000000000000000000000000000815260040161155b90612566565b60405180910390fd5b805181602001fd5b63150b7a0260e01b7bffffffffffffffffffffffffffffffffffffffffffffffffffffffff1916817bffffffffffffffffffffffffffffffffffffffffffffffffffffffff1916149150506115c1565b600190505b949350505050565b600073ffffffffffffffffffffffffffffffffffffffff168273ffffffffffffffffffffffffffffffffffffffff161415611639576040517f08c379a0000000000000000000000000000000000000000000000000000000008152600401611630906126b5565b60405180910390fd5b61164281611361565b15611682576040517f08c379a000000000000000000000000000000000000000000000000000000000815260040161167990612721565b60405180910390fd5b61168e600083836113cd565b6001600360008473ffffffffffffffffffffffffffffffffffffffff1673ffffffffffffffffffffffffffffffffffffffff16815260200190815260200160002060008282546116de91906123f4565b92505081905550816002600083815260200190815260200160002060006101000a81548173ffffffffffffffffffffffffffffffffffffffff021916908373ffffffffffffffffffffffffffffffffffffffff160217905550808273ffffffffffffffffffffffffffffffffffffffff16600073ffffffffffffffffffffffffffffffffffffffff167fddf252ad1be2c89b69c2b068fc378daa952ba7f163c4a11628f55a4df523b3ef60405160405180910390a461179f600083836113d2565b5050565b6000808273ffffffffffffffffffffffffffffffffffffffff163b119050919050565b8280546117d290611f58565b90600052602060002090601f0160209004810192826117f4576000855561183b565b82601f1061180d57805160ff191683800117855561183b565b8280016001018555821561183b579182015b8281111561183a57825182559160200191906001019061181f565b5b509050611848919061184c565b5090565b5b8082111561186557600081600090555060010161184d565b5090565b6000604051905090565b600080fd5b600080fd5b60007fffffffff0000000000000000000000000000000000000000000000000000000082169050919050565b6118b28161187d565b81146118bd57600080fd5b50565b6000813590506118cf816118a9565b92915050565b6000602082840312156118eb576118ea611873565b5b60006118f9848285016118c0565b91505092915050565b60008115159050919050565b61191781611902565b82525050565b6000602082019050611932600083018461190e565b92915050565b600081519050919050565b600082825260208201905092915050565b60005b83811015611972578082015181840152602081019050611957565b83811115611981576000848401525b50505050565b6000601f19601f8301169050919050565b60006119a382611938565b6119ad8185611943565b93506119bd818560208601611954565b6119c681611987565b840191505092915050565b600060208201905081810360008301526119eb8184611998565b905092915050565b6000819050919050565b611a06816119f3565b8114611a1157600080fd5b50565b600081359050611a23816119fd565b92915050565b600060208284031215611a3f57611a3e611873565b5b6000611a4d84828501611a14565b91505092915050565b600073ffffffffffffffffffffffffffffffffffffffff82169050919050565b6000611a8182611a56565b9050919050565b611a9181611a76565b82525050565b6000602082019050611aac6000830184611a88565b92915050565b611abb81611a76565b8114611ac657600080fd5b50565b600081359050611ad881611ab2565b92915050565b60008060408385031215611af557611af4611873565b5b6000611b0385828601611ac9565b9250506020611b1485828601611a14565b9150509250929050565b600080600060608486031215611b3757611b36611873565b5b6000611b4586828701611ac9565b9350506020611b5686828701611ac9565b9250506040611b6786828701611a14565b9150509250925092565b600060208284031215611b8757611b86611873565b5b6000611b9584828501611ac9565b91505092915050565b611ba7816119f3565b82525050565b6000602082019050611bc26000830184611b9e565b92915050565b611bd181611902565b8114611bdc57600080fd5b50565b600081359050611bee81611bc8565b92915050565b60008060408385031215611c0b57611c0a611873565b5b6000611c1985828601611ac9565b9250506020611c2a85828601611bdf565b9150509250929050565b600080fd5b600080fd5b7f4e487b7100000000000000000000000000000000000000000000000000000000600052604160045260246000fd5b611c7682611987565b810181811067ffffffffffffffff82111715611c9557611c94611c3e565b5b80604052505050565b6000611ca8611869565b9050611cb48282611c6d565b919050565b600067ffffffffffffffff821115611cd457611cd3611c3e565b5b611cdd82611987565b9050602081019050919050565b82818337600083830152505050565b6000611d0c611d0784611cb9565b611c9e565b905082815260208101848484011115611d2857611d27611c39565b5b611d33848285611cea565b509392505050565b600082601f830112611d5057611d4f611c34565b5b8135611d60848260208601611cf9565b91505092915050565b60008060408385031215611d8057611d7f611873565b5b600083013567ffffffffffffffff811115611d9e57611d9d611878565b5b611daa85828601611d3b565b9250506020611dbb85828601611ac9565b9150509250929050565b600067ffffffffffffffff821115611de057611ddf611c3e565b5b611de982611987565b9050602081019050919050565b6000611e09611e0484611dc5565b611c9e565b905082815260208101848484011115611e2557611e24611c39565b5b611e30848285611cea565b509392505050565b600082601f830112611e4d57611e4c611c34565b5b8135611e5d848260208601611df6565b91505092915050565b60008060008060808587031215611e8057611e7f611873565b5b6000611e8e87828801611ac9565b9450506020611e9f87828801611ac9565b9350506040611eb087828801611a14565b925050606085013567ffffffffffffffff811115611ed157611ed0611878565b5b611edd87828801611e38565b91505092959194509250565b60008060408385031215611f0057611eff611873565b5b6000611f0e85828601611ac9565b9250506020611f1f85828601611ac9565b9150509250929050565b7f4e487b7100000000000000000000000000000000000000000000000000000000600052602260045260246000fd5b60006002820490506001821680611f7057607f821691505b60208210811415611f8457611f83611f29565b5b50919050565b7f4552433732313a20617070726f76616c20746f2063757272656e74206f776e6560008201527f7200000000000000000000000000000000000000000000000000000000000000602082015250565b6000611fe6602183611943565b9150611ff182611f8a565b604082019050919050565b6000602082019050818103600083015261201581611fd9565b9050919050565b7f4552433732313a20617070726f76652063616c6c6572206973206e6f7420746f60008201527f6b656e206f776e6572206e6f7220617070726f76656420666f7220616c6c0000602082015250565b6000612078603e83611943565b91506120838261201c565b604082019050919050565b600060208201905081810360008301526120a78161206b565b9050919050565b7f4552433732313a2063616c6c6572206973206e6f7420746f6b656e206f776e6560008201527f72206e6f7220617070726f766564000000000000000000000000000000000000602082015250565b600061210a602e83611943565b9150612115826120ae565b604082019050919050565b60006020820190508181036000830152612139816120fd565b9050919050565b7f4552433732313a20696e76616c696420746f6b656e2049440000000000000000600082015250565b6000612176601883611943565b915061218182612140565b602082019050919050565b600060208201905081810360008301526121a581612169565b9050919050565b7f4552433732313a2061646472657373207a65726f206973206e6f74206120766160008201527f6c6964206f776e65720000000000000000000000000000000000000000000000602082015250565b6000612208602983611943565b9150612213826121ac565b604082019050919050565b60006020820190508181036000830152612237816121fb565b9050919050565b7f4e487b7100000000000000000000000000000000000000000000000000000000600052603260045260246000fd5b7f4e487b7100000000000000000000000000000000000000000000000000000000600052601160045260246000fd5b60006122a7826119f3565b91506122b2836119f3565b9250828210156122c5576122c461226d565b5b828203905092915050565b7f4552433732313a207472616e736665722066726f6d20696e636f72726563742060008201527f6f776e6572000000000000000000000000000000000000000000000000000000602082015250565b600061232c602583611943565b9150612337826122d0565b604082019050919050565b6000602082019050818103600083015261235b8161231f565b9050919050565b7f4552433732313a207472616e7366657220746f20746865207a65726f2061646460008201527f7265737300000000000000000000000000000000000000000000000000000000602082015250565b60006123be602483611943565b91506123c982612362565b604082019050919050565b600060208201905081810360008301526123ed816123b1565b9050919050565b60006123ff826119f3565b915061240a836119f3565b9250827fffffffffffffffffffffffffffffffffffffffffffffffffffffffffffffffff0382111561243f5761243e61226d565b5b828201905092915050565b7f4552433732313a20617070726f766520746f2063616c6c657200000000000000600082015250565b6000612480601983611943565b915061248b8261244a565b602082019050919050565b600060208201905081810360008301526124af81612473565b9050919050565b600060608201905081810360008301526124d08186611998565b90506124df6020830185611b9e565b6124ec6040830184611a88565b949350505050565b7f4552433732313a207472616e7366657220746f206e6f6e20455243373231526560008201527f63656976657220696d706c656d656e7465720000000000000000000000000000602082015250565b6000612550603283611943565b915061255b826124f4565b604082019050919050565b6000602082019050818103600083015261257f81612543565b9050919050565b600081519050919050565b600082825260208201905092915050565b60006125ad82612586565b6125b78185612591565b93506125c7818560208601611954565b6125d081611987565b840191505092915050565b60006080820190506125f06000830187611a88565b6125fd6020830186611a88565b61260a6040830185611b9e565b818103606083015261261c81846125a2565b905095945050505050565b600081519050612636816118a9565b92915050565b60006020828403121561265257612651611873565b5b600061266084828501612627565b91505092915050565b7f4552433732313a206d696e7420746f20746865207a65726f2061646472657373600082015250565b600061269f602083611943565b91506126aa82612669565b602082019050919050565b600060208201905081810360008301526126ce81612692565b9050919050565b7f4552433732313a20746f6b656e20616c7265616479206d696e74656400000000600082015250565b600061270b601c83611943565b9150612716826126d5565b602082019050919050565b6000602082019050818103600083015261273a816126fe565b905091905056fe416e204e465420772f20494420257320686173206265656e206d696e74656420746f202573a2646970667358221220ac51fa034f28ed5f6773f3b6d32092f50f0a7f8773032da0fd186f1cd10dab2864736f6c63430008090033",
  "linkReferences": {},
  "deployedLinkReferences": {}
}